:020000040800F2
:1000000000200020DD010008E5010008E9010008EA
:1000100000000000000000000000000000000000E0
:100020000000000000000000000000001D020008A9
:100030000000000000000000210200082502000866
:100040002D0200082D0200082D0200082D020008D4
:100050002D0200082D0200082D0200082D020008C4
:100060002D0200082D0200082D0200082D020008B4
:100070002D0200082D0200082D0200086D0700085F
:100080002D0200082D020008000000002D020008CB
:100090002D0200082D0200082D0200082D02000884
:1000A0002D0200082D0200082D0200082D02000874
:1000B0002D020008000000002D02000800000000D2
:1000C0005FF808F130B583B000F078F9314B324A6F
:1000D0001360324A1360324B324A03E011681960F0
:1000E0000433043230498B42F8D32B4B1A682F4B20
:1000F0009A4204D1294B1A682D4B9A4200D0FEE750
:10010000244B2C4A13602C4A13602C4B02E0002233
:100110001A6004332A4A9342F9D3264B1B68002BFA
:1001200003D1254B1B68002B00D0FEE700F04AF9F5
:10013000694601A800F0B4F8224C234B1C1BA41004
:10014000002504E0AA001F4BD35898470135AC4264
:10015000F8DC1E4C1E4B1C1BA410002504E0AA005A
:100160001A4BD35898470135AC42F8DC00990198F6
:1001700000F0B4FA0500174C174B1C1BA41004E048
:10018000013CA200134BD3589847002CF8DC280000
:1001900000F062F8BABADECA000000208800002031
:1001A00000000020041C00088C0000207856341247
:1001B000325476988C000020240100208C0000200E
:1001C00028010020580200085802000858020008C0
:1001D00058020008580200085802000810B5FFF73E
:1001E00071FFC04600BEFEE704207146084202D0FF
:1001F000EFF3098001E0EFF3088071460A4A1047E7
:1002000070B504000D00044800F07AF829002000C1
:1002100000F0DCF800BEFEE7DC1A000800BEFEE7D6
:1002200000BEFEE7704700000102000800BEFEE7C6
:10023000041C0008000000208C000020041C0008A2
:1002400000000000000000008C00002028010020B9
:080250000000000000000000A6
:10025800FEE7C04610B503000C4A1268002A02D116
:100268000B490A4A1160094A106803330322934371
:10027800C318084A934206D900F026FB0C230360F2
:100288000120404201E0014A136010BD90000020A7
:1002980028010020001C002001230360014B0B6093
:1002A8007047C0460400002010B500F00DFB58232D
:1002B80003600120404210BD10B500F005FB582333
:1002C80003600120404210BD10B500F0FDFA58232C
:1002D8000360002010BDC04610B500F0F5FA5823A1
:1002E80003600120404210BD10B500F0EDFA58231C
:1002F80003600120404210BD0FB400B583B004ABC9
:1003080004CB01938021064800F0E0FB002803DDC0
:100318000100034800F04AF803B008BC04B01847CD
:100328009800002010B5040000F09EFB010020009A
:1003380000F03CF80121024800F038F810BDC04632
:10034800381A0008F0B54F464646C0B487B00400D6
:1003580001914356002B1FD10426301C211CABBE33
:10036800041C1CE03E00102F00D91026002305E0D5
:100378000022A25602A9CA5401330134B342F7D36A
:1003880002AA914600224946CA540425281C494617
:10039800ABBE8046BF1B00E0019F002FE2D1019851
:1003A80007B00CBC90469946F0BDC04610B5FFF7A3
:1003B800C9FF10BD10B500F0A1F810BD10B500F0D0
:1003C800CFF810BD70B504000D001548FFF794FF75
:1003D80021681448FFF790FF61681348FFF78CFF06
:1003E800A1681248FFF788FFE1681148FFF784FF0A
:1003F80021691048FFF780FF61690F48FFF77CFF0C
:10040800A1690E48FFF778FFE1690D48FFF774FF0F
:100418000C48FFF771FF29000B48FFF76DFF70BD0F
:100428002C1A00083C1A00084C1A00085C1A00082C
:100438006C1A00087C1A00088C1A00089C1A00081C
:10044800AC1A0008BC1A0008C41A000882B00023BD
:1004580001930093264A1368802149020B431360D5
:10046800234B1A6880239B0213400093019B01339E
:100478000193009B002B04D1019AA023DB019A422F
:10048800EED11B4B1B689B0302D50123009301E0AF
:1004980000230093009B012B28D11122154B1A60D1
:1004A800134B5A685A605A685A605968124A0A4087
:1004B8005A605A68882149030A435A601A68802199
:1004C80049040A431A600A4B1B689B01FBD5084B79
:1004D8005A6803218A435A60596802220A435A60BB
:1004E800034B5B680C221340082BF9D102B070470C
:1004F8000010024000200240FF7FC0FF10B5124BE1
:100508001A6801210A431A605868104A02405A6062
:1005180018680F4A02401A6018680E4A02401A60AA
:1005280058680D4A02405A60DA6A0F208243DA623C
:10053800186B0A4A02401A635A6B8A435A630022AC
:100548009A60FFF783FF10BD001002400CB8FFF857
:10055800FFFFF6FEFFFFFBFFFFFFC0FFACFEFFFF44
:1005680010B51F4B5B680C221340042B07D0082BD7
:1005780009D0002B23D11B4A1B4B1A6022E0194AD1
:10058800194B1A601EE0164B5C685A68C0235B0260
:10059800A40C0F20044002341A4204D113484443E7
:1005A800114B1C600EE00E4BDB6A0F211940013124
:1005B8000C4800F0FDF844430B4B1C6002E0094A6C
:1005C800094B1A60064B5B681B090F221340084A47
:1005D800D35CDBB2044A1168D940116010BDC04633
:1005E8000010024000127A001C00002000093D00A3
:1005F8000C00002010B50B000138012804D81100A8
:100608001800FFF7D3FE05E000F05EF958230360F9
:100618000120404210BDC046074A53698021890223
:100628000B4353619023DB051A6803218A431A6040
:10063800DA688A43DA607047001002400C4A53694E
:10064800802109030B4353610A4B1A68A021C90290
:100658000A431A609988084A0A409A809A68F021E1
:1006680009030A439A60D968044A0A40DA60704765
:100678000010024000080048FFFCFFFFFFFFF0FFEA
:1006880010B5114AD36901210B43D3618023DB05DF
:100698008C221A8000221A850C4ADA620122998279
:1006A8000B48C324A40001590902090A01518021F9
:1006B800090201609989114389B2998119880A430D
:1006C80092B21A8010BDC04600100240001BB7004D
:1006D80000E100E010B51A48FFF724FE194800F0C1
:1006E800B9F9194B1B68DB6818220121174800F07B
:1006F80043F9174B19681748FFF7FEFDFFF78CFF02
:10070800FFF79CFFFFF7BCFF9023DB051B8ADB0785
:10071800FAD59023DB051B8ADB07FAD40E4B1A881F
:1007280092B20E490A851888C022920042401A8067
:100738001B889BB28B610A48FFF7DEFDE4E7C046E1
:10074800EC1A0008FC1A000884000020181B000896
:100758001C000020341B000820000020000800486E
:100768004C1B00088023DB051B8ADB071BD50E4BBF
:100778009A8AC0239B001A4205D10C4B1B889BB256
:10078800094A936104E0094B1B889BB2064A13850A
:100798008022D205138A01218B43138211880123F9
:1007A8000B439BB2138070470008004820000020CC
:1007B800002243088B4274D303098B425FD3030A98
:1007C8008B4244D3030B8B4228D3030C8B420DD3AB
:1007D800FF22090212BA030C8B4202D31212090239
:1007E80065D0030B8B4219D300E0090AC30B8B4277
:1007F80001D3CB03C01A5241830B8B4201D38B0325
:10080800C01A5241430B8B4201D34B03C01A5241C9
:10081800030B8B4201D30B03C01A5241C30A8B420C
:1008280001D3CB02C01A5241830A8B4201D38B02F7
:10083800C01A5241430A8B4201D34B02C01A52419B
:10084800030A8B4201D30B02C01A5241CDD2C3090D
:100858008B4201D3CB01C01A524183098B4201D389
:100868008B01C01A524143098B4201D34B01C01A74
:10087800524103098B4201D30B01C01A5241C308EC
:100888008B4201D3CB00C01A524183088B4201D35B
:100898008B00C01A524143088B4201D34B00C01A47
:1008A8005241411A00D20146524110467047FFE7B3
:1008B80001B5002000F006F802BDC0460029F7D0B7
:1008C80076E770477047C046014B18687047C046C6
:1008D80084000020F7B55343050001911700089CD8
:1008E8000093002804D08369002B01D100F0BAFAE4
:1008F8001E4B9C4201D16C6808E01D4B9C4201D103
:10090800AC6803E01B4B9C4200D1EC68A3891B0731
:1009180004D52369002B01D0002613E0210028000C
:1009280000F036F90026B042F6D01AE0019B995D36
:10093800A368013BA360002B08DB23685A1C2260D4
:1009480019700136009B9E42F0D10AE0A2699342D9
:1009580001DB0A29F1D12200280000F0C3F8431C6A
:10096800EFD139003000FFF723FFFEBD701B0008F0
:10097800901B0008B01B000807B5009313000A007D
:10098800010002480068FFF7A5FF0EBD84000020A3
:1009980070B505000E00002804D08369002B01D132
:1009A80000F060FAAB69AC68002B02D1280000F0B7
:1009B80059FA254B9C4201D16C6808E0234B9C42B4
:1009C80001D1AC6803E0224B9C4200D1EC68A389BA
:1009D8001B0702D52369002B11D12100280000F044
:1009E800D7F800280BD0012040422BE0013B01360C
:1009F800A360002B08DB23685A1C22601970317829
:100A0800A3680029F2D10BE0A269934201DB0A290D
:100A1800F1D12200280000F065F8431CEFD1E2E78D
:100A2800013BA360002B08DA22000A31280000F0FD
:100A380059F8431CD7D00A2004E00A2023685A1C1E
:100A48002260187070BDC046701B0008901B00081B
:100A5800B01B000810B5034B01001868FFF798FF9A
:100A680010BDC046840000200023C25C0133002A68
:100A7800FBD1581E704730B514009BB005001A0012
:100A8800002C04DA8B230360012040421CE08223FF
:100A980068469B0083810023009104919C4200D00A
:100AA800631E02930593012369465B42CB812800AC
:100AB8001E9B00F0E5FB431C01DA8B232B60002C06
:100AC80002D00023009A13701BB030BD07B5009305
:100AD80013000A00010002480068FFF7CCFF0EBDB2
:100AE80084000020F8B505000F001400002804D089
:100AF8008369002B01D100F0B5F9224B9C4201D14A
:100B08006C6808E0204B9C4201D1AC6803E01F4BA5
:100B18009C4200D1EC68A369A360A3891B070AD58E
:100B28002369002B07D023682269FEB2981A6369EB
:100B380098420FDB08E02100280000F029F800287F
:100B4800F1D0012676421BE02100280000F01CF9B4
:100B58000028F6D1A3680130013BA36023685A1C22
:100B680022601F706369984204D0A389DB0707D508
:100B78000A2E05D12100280000F006F90028E0D14E
:100B88003000F8BD701B0008901B0008B01B00085F
:100B9800364B70B51D6806000C00002D05D0AB69FA
:100BA800002B02D1280000F05DF9314B9C4201D1A5
:100BB8006C6808E02F4B9C4201D1AC6803E02E4BD7
:100BC8009C4200D1EC680C22A35E9AB2110723D490
:100BD800D10607D409220120326037321343A3819A
:100BE800404242E0530713D5616B002908D0230027
:100BF8004433994202D0300000F034FA0023636392
:100C08002422A3899343A38100236360236923607B
:100C18000822A3891343A3812369002B0BD1A023A6
:100C28008022A1899B0092000B40934203D02100AF
:100C3800300000F0D1F90123A289134005D0002328
:100C4800A36063695B42A36103E0920700D4636910
:100C5800A36000202369834207D10C22A35E1A06F1
:100C680003D540221343A381013870BD84000020BE
:100C7800701B0008901B0008B01B0008F7B58A8994
:100C880005000C0013075AD44B68002B02DC0B6CD0
:100C9800002B19DDE76A002F16D000232E682B6081
:100CA80080235B011A4001D0606D14E00123216AA2
:100CB8002800B847431C0ED12B68002B0BD01D2BE6
:100CC80001D0162B02D12E6000205AE04022A389C1
:100CD8001343A38155E0A3895B0706D56368C01A4F
:100CE800636B002B01D0236CC01A00230200216A19
:100CF8002800E76AB847A389421C06D129681D293C
:100D08003AD8204ACA40D20736D500226260226902
:100D18002260DB0405D5431C02D12B68002B00D1CF
:100D28006065616B2E600029CED023004433994260
:100D380002D0280000F096F90020606321E00F69D6
:100D4800002FC1D00B680F60DB1B019300239207B3
:100D580000D14B69A36003E0019B3F181B1A019364
:100D6800019B002BB0DD019B3A00216A2800A66A8E
:100D7800B0470028F0DCA389402201201343A38157
:100D88004042FEBD010040200B6970B505000C0013
:100D9800002B01D100201CE0002804D08369002B1F
:100DA80001D100F05FF80B4B9C4201D16C6808E060
:100DB800094B9C4201D1AC6803E0084B9C4200D12E
:100DC800EC680C22A35E002BE4D021002800FFF77A
:100DD80055FF70BD701B0008901B0008B01B000871
:100DE80010B5024900F0B0F810BDC046910D0008DA
:100DF800002310B50400036043608360818143666B
:100E0800C281036143618361190008225C3000F0EC
:100E180021F9054B24626362044BA362044BE3622D
:100E2800044B236310BDC046C9170008F11700081A
:100E3800291800085518000870B568254B1E5D4331
:100E48000E002900743100F059F9041E08D0002161
:100E58002A00016046600C30A060683200F0FAF8A1
:100E6800200070BD836913B50400002B28D183646A
:100E7800C3640365134B144A1B688262019398424A
:100E880001D101238361200000F020F86060200078
:100E980000F01CF8A060200000F018F80022E060C4
:100EA80004216068FFF7A4FF01220921A068FFF769
:100EB8009FFF02221221E068FFF79AFF0123A36136
:100EC80013BDC0466C1B0008E90D0008F8B51D4BA2
:100ED80006001D68AB69002B02D12800FFF7C2FF8E
:100EE8004835AC686B68013B05D40C22A75E002F1F
:100EF80010D06834F7E72B68002B01D02D68F0E795
:100F080004213000FFF798FF28600028F6D10C2351
:100F1800336016E0012320005B42E3810233A381A2
:100F280067662760A760676027616761A7615C30B3
:100F38000822390000F08EF820006763A763A764D1
:100F4800E764F8BD6C1B0008F7B50400070000262D
:100F580001914834002C16D06368A5680093009B63
:100F6800013B00930DD4AB89012B08D90E22AB5E4F
:100F7800013304D029003800019B9847064368359F
:100F8800EDE72468E6E73000FEBD000070B50E000E
:100F98001D000E23C95E90B01400002906DA002354
:100FA8002B60B3891B060FD540230FE001AA00F080
:100FB80079FC0028F3DBF023029A1B021340054A50
:100FC8009B185A4253412B608023DB00002023608A
:100FD80010B070BD00E0FFFFF7B502268B89050051
:100FE8000C00334210D101AB6A46FFF7CFFF0099DE
:100FF8000700280000F082F800280CD10C22A35E1C
:101008009A0523D43343A381230047332360236104
:10101800012363611AE080220D4BAB62A389206033
:101028001343A381009B20616361019B002B0AD0BD
:101038000E23E15E280000F047FC002803D00122BF
:10104800A3891343A381A3891F43A781F7BDC04682
:10105800E90D000803008218934202D01970013389
:10106800FAE7704770B50500002944D00C1F2368C3
:10107800002B00DAE418280000F075FC1E4A1368FB
:101088001100002B02D16360146031E0A3420DD936
:101098002268A018834203D118685B68821822600E
:1010A80063600C6024E0A24203D813005A68002A47
:1010B800F9D11E689819A0420BD1216871185818E7
:1010C8001960824214D110685268411819605A6038
:1010D8000EE0A04202D90C232B6009E021686018B9
:1010E800824203D1106852684118216062605C60D6
:1010F800280000F039FC70BD1C010020032370B5E6
:10110800CD1C9D43083506000C2D01D20C2501E0AD
:10111800002D01DBA94202D90C23336048E03000DE
:1011280000F021FC234B1C681A002100002913D071
:101138000B685B1B0DD40B2B02D90B60CC181EE07F
:101148008C4202D1636813601AE04B6863600C003C
:1011580016E00C004968E9E7174C2368002B03D117
:10116800300000F01BFB20602900300000F016FB67
:10117800431C18D00323C41C9C43A0420DD12560F6
:10118800300000F0F1FB200007220B30231D9043B4
:10119800C31A0ED05A42E2500BE0211A300000F078
:1011A800FDFA431CEBD10C233000336000F0DCFB6C
:1011B800002070BD1C01002018010020F0B58E68C9
:1011C80085B007000C00039201939E4243D89023F8
:1011D8008A89DB001A423ED00325096923680198F1
:1011E8005B1A029363695D43EB0F5D19029B6D10F7
:1011F80001331B18AB4200D91D00530510D5290037
:101208003800FFF77BFF061E14D0029A216900F010
:101218008CFBA289194B134080221343A38112E04F
:101228002A00380000F0A1FB061E0CD12169380005
:10123800FFF718FF0C23402201203B60A38940429E
:101248001343A38117E0029B2661F61826606561A7
:10125800019EED1AA560019BB34200D21E00320028
:101268000399206800F06AFB0020A3689B1BA36019
:1012780023689E19266005B0F0BDC0467FFBFFFFBE
:10128800F0B59FB0029005938B890F0016001B06DE
:1012980010D50B69002B0DD14021FFF72FFF3860C7
:1012A8003861002804D10C23029A01381360D8E071
:1012B80040237B61002306AD6B6120336B761033CE
:1012C800AB7634002378002B03D1A31B049312D0F0
:1012D80003E0252BF9D00134F4E7A31B32003900D1
:1012E8000298FFF76BFF431C00D1B4E06A69049BC6
:1012F800944663446B612378002B00D1ABE0012254
:10130800002352426A6002A95432521801342B60F9
:10131800EB60AB601370AB65534E2178052230004B
:1013280000F0F8FA002807D00123801B83402A68C0
:10133800013413432B60EFE72B68DA0604D55322F8
:10134800202102A8121811701A0704D553222B2144
:1013580002A81218117022782A2A03D0099B0020AB
:101368000A210EE0059A111D12680591002A01DB79
:10137800099204E05242EA60022213432B600134CE
:101388000BE02278303A092A04D84B4301349B18E1
:101398000120F6E7002800D0099323782E2B1ED1D0
:1013A80063782A2B0AD1059B02341A1D1B68059203
:1013B800002B01DA01235B42079310E000230A2087
:1013C8001A0001346B6021783039092904D8424366
:1013D800013452180123F6E7002B00D00792234E60
:1013E80021780322300000F095FA002806D0402327
:1013F800801B83402A68013413432B60217806221E
:101408001B48661C297600F085FA002812D0194B73
:10141800002B06D10722059B073393430833059316
:1014280014E005AB00933A00134B2900029800E042
:1014380000BF07E005AB00933A000F4B2900029864
:1014480000F08AF80390039B013304D06B69039A78
:101458009B186B6135E7BB890B985B0601D50120AA
:1014680040421FB0F0BDC046D01B0008D61B000884
:10147800DA1B000800000000C5110008F7B51700C6
:1014880001938A680B6900900C00934200DA1300FC
:1014980022003B6043321278002A01D001333B60BE
:1014A80023689B0602D53B6802333B600625236808
:1014B8001D401ED0230043331B785A1E93412268D7
:1014C80092061CD53020E1184331087021005A1CBF
:1014D80045310978A2184332023311700FE0220017
:1014E8000123193201990098089EB047431C0ED079
:1014F8000135E3683A689B1A9D42F0DBDAE722007F
:10150800019943320098089DA847431C02D1012045
:10151800404220E006232068E1683A68034000253D
:10152800042B03D18D1AEB43DB171D40A3682269F6
:10153800934201DD9B1AED180027BD420AD0220014
:1015480001231A3201990098089EB047431CDED047
:101558000137F2E70020FEBDF0B58BB006920A0015
:1015680043320793059004920A7E0C00109B6E2A62
:1015780000D1ABE011D8632A22D009D8002A00D1C3
:10158800B5E0582A00D0C5E045310A70814A4FE0DD
:10159800642A1DD0692A1BD0BCE0732A00D1AAE0B6
:1015A80009D86F2A29D0702A00D0B3E02022096810
:1015B8000A43226037E0752A1FD0782A33D0A9E081
:1015C8000E001A684236111D196013683370A4E0C2
:1015D80021681A68080606D4490604D5111D196041
:1015E8000023D55E02E0111D19601568002D3BDA55
:1015F8002D23049A6D42137036E021681A68080694
:1016080006D4490604D51568111D1960ADB202E06B
:10161800111D196015685F4B227E039308276F2AF6
:101628001DD00A271BE022007821453211705A4A42
:1016380019680392081D226818600D68100602D404
:10164800500600D5ADB2D30702D520231A43226035
:101658001027002D03D1202322689A4322602300FB
:10166800002243331A7002E00A274A4B0393636847
:10167800A360002B09DB0422216891432160002D1F
:1016880005D1049E002B11D07BE0002D79D0049E5B
:1016980028003900FFF712F9039B013E5B5C280024
:1016A80033703900FFF784F8051EF1D1082F09D1EE
:1016B8002368DB0706D563682269934202DC30237E
:1016C800013E3370049B9B1B23612BE009681A6859
:1016D800080607D4490605D5111D19601368A28AA2
:1016E8001A8004E0111D1960136862691A600023EA
:1016F800049E236116E01A68111D196016680021FE
:101708006268300000F006F9002801D0801B606094
:10171800636803E026004236327001232361002308
:10172800049A1370079B09AA00932100069B059849
:10173800FFF7A4FE431C02D10120404227E02369A1
:10174800320006990598079DA847431CF4D02368E2
:1017580000259B070FD4099BE068984217DA180008
:1017680015E022000123193206990598079EB04713
:10177800431CE1D00135E368099A9B1A9D42F0DBCE
:10178800E9E72600039B42361B7833708EE70BB0DF
:10179800F0BDC046E11B0008F21B0008002370B52D
:1017A800064C050008002360FEF754FD431C03D1D6
:1017B8002368002B00D02B6070BDC046200100209C
:1017C80070B50C000E25495F00F0F6F8002803DB21
:1017D800636D1B18636503E0A289024B1340A38164
:1017E80070BDC046FFEFFFFFF8B51F008B890500ED
:1017F8000C001600DB0505D50E23C95E0022022366
:1018080000F074F8A289054B28001340A381320028
:101818000E23E15E3B0000F01FF8F8BDFFEFFFFF6D
:1018280070B50C000E25495F00F060F8A389421CD2
:1018380003D1054A1340A38104E0802252011343D7
:10184800A381606570BDC046FFEFFFFF10B50E2392
:10185800C95E00F015F810BD70B50500080011004C
:101868000022064C22601A00FEF7C4FE431C03D176
:101878002368002B00D02B6070BDC04620010020DB
:10188800002370B5064C050008002360FEF70CFD28
:10189800431C03D12368002B00D02B6070BDC046C9
:1018A80020010020002370B5064C05000800110037
:1018B8002360FEF701FD431C03D12368002B00D0F1
:1018C8002B6070BD20010020002370B5064C050078
:1018D80008002360FEF7F8FC431C03D12368002BA3
:1018E80000D02B6070BDC0462001002070B50500F7
:1018F800080011000022064C22601A00FEF7ECFCDA
:10190800431C03D12368002B00D02B6070BDC04658
:1019180020010020C9B28218904204D003788B427B
:1019280002D00130F8E700207047002310B59A4232
:1019380003D0CC5CC4540133F9E710BD10B588421C
:1019480002D98B18984201D3002305E09B1A013A6B
:1019580008D3995C8154FAE7934203D0CC5CC45411
:101968000133F9E710BD70477047F8B506000C0061
:101978001500002904D11100FFF7C0FB040018E08E
:10198800002A03D1FFF76EFB2C0012E000F028F8C4
:1019980085420ED929003000FFF7B0FB071E07D09B
:1019A80021002A00FFF7C1FF21003000FFF75AFB92
:1019B8003C002000F8BD000070B5050008001100CB
:1019C8000022064C22601A00FEF78EFC431C03D14D
:1019D8002368002B00D02B6070BDC046200100207A
:1019E8000B1F1A68101F002A04DA891804390B68BB
:1019F800D0180438704700006D61696E28617267FD
:101A0800633D25642C20617267763D5B0000000011
:101A18002C20000022257322000000005D293B0ACB
:101A280000000000537461636B206672616D653A53
:101A38000A000000205230203D2020253038580A66
:101A480000000000205231203D2020253038580A5F
:101A580000000000205232203D2020253038580A4E
:101A680000000000205233203D2020253038580A3D
:101A78000000000020523132203D20253038580A1D
:101A880000000000204C52203D2020253038580A04
:101A980000000000205043203D2020253038580AFF
:101AA8000000000020505352203D20253038580AAD
:101AB800000000004D6973630A000000204C522F9B
:101AC8004558435F52455455524E3D2025303858AD
:101AD8000A0000005B486172644661756C745D0AB7
:101AE8000000000048656C6C6F20576F726C6421B1
:101AF800000000005374616E64617264206F757435
:101B0800707574206D6573736167652E0000000041
:101B18005374616E64617264206572726F72206DB5
:101B28006573736167652E0A00000000537973744A
:101B3800656D20636C6F636B3A20257520487A0ABF
:101B4800000000000A537769746368696E6720743F
:101B5800686520626C696E6B696E67204C45442E1F
:101B68002E2E0A00240000200000000000000000C3
:101B7800000000000000000000000000000000005D
:101B8800000000000000000000000000000000004D
:101B9800000000000000000000000000000000003D
:101BA800000000000000000000000000000000002D
:101BB800000000000000000000000000000000001D
:101BC8000000000000000000232D302B2000686C6E
:101BD8004C00656667454647003031323334353648
:101BE8003738394142434445460030313233343581
:0B1BF8003637383961626364656600AF
:101C04007856341294000020000000000000000008
:101C1400000000000102030406070809006CDC024E
:101C24000001FFFF00000000701B0008901B00086B
:101C3400B01B0008000000000000000000000000CD
:101C44000000000000000000000000000000000090
:101C54000000000000000000000000000000000080
:101C64000000000000000000000000000000000070
:101C74000000000000000000000000000000000060
:0C1C84000000000024000020325476987C
:04000005080000C52A
:00000001FF
